{
  "contractName": "Main",
  "abi": [
    {
      "constant": false,
      "inputs": [
        {
          "name": "_firstName",
          "type": "string"
        },
        {
          "name": "_lastName",
          "type": "string"
        },
        {
          "name": "_email",
          "type": "string"
        },
        {
          "name": "_raiting",
          "type": "uint256"
        },
        {
          "name": "_address",
          "type": "address"
        },
        {
          "name": "_positionCodes",
          "type": "uint256[]"
        },
        {
          "name": "_skillCodes",
          "type": "uint256[]"
        },
        {
          "name": "_skillToPosition",
          "type": "uint256[]"
        }
      ],
      "name": "newEmployee",
      "outputs": [],
      "payable": false,
      "stateMutability": "nonpayable",
      "type": "function"
    },
    {
      "constant": true,
      "inputs": [],
      "name": "getBalance",
      "outputs": [
        {
          "name": "",
          "type": "uint256"
        }
      ],
      "payable": false,
      "stateMutability": "view",
      "type": "function"
    },
    {
      "constant": false,
      "inputs": [],
      "name": "kill",
      "outputs": [],
      "payable": false,
      "stateMutability": "nonpayable",
      "type": "function"
    },
    {
      "constant": false,
      "inputs": [
        {
          "name": "_skillCodes",
          "type": "uint256[]"
        },
        {
          "name": "_skillToPosition",
          "type": "uint256[]"
        },
        {
          "name": "_startDate",
          "type": "uint256"
        },
        {
          "name": "_endDate",
          "type": "uint256"
        },
        {
          "name": "_empoloyee",
          "type": "address"
        },
        {
          "name": "_company",
          "type": "address"
        },
        {
          "name": "_weekPayment",
          "type": "uint256"
        }
      ],
      "name": "newContract",
      "outputs": [],
      "payable": false,
      "stateMutability": "nonpayable",
      "type": "function"
    },
    {
      "constant": false,
      "inputs": [
        {
          "name": "_name",
          "type": "string"
        },
        {
          "name": "_raiting",
          "type": "uint256"
        },
        {
          "name": "_address",
          "type": "address"
        }
      ],
      "name": "newCompany",
      "outputs": [],
      "payable": false,
      "stateMutability": "nonpayable",
      "type": "function"
    },
    {
      "constant": true,
      "inputs": [],
      "name": "owner",
      "outputs": [
        {
          "name": "",
          "type": "address"
        }
      ],
      "payable": false,
      "stateMutability": "view",
      "type": "function"
    },
    {
      "constant": true,
      "inputs": [
        {
          "name": "index",
          "type": "uint256"
        }
      ],
      "name": "getEmployee",
      "outputs": [
        {
          "name": "",
          "type": "address"
        }
      ],
      "payable": false,
      "stateMutability": "view",
      "type": "function"
    },
    {
      "constant": true,
      "inputs": [
        {
          "name": "index",
          "type": "uint256"
        },
        {
          "name": "count",
          "type": "uint256"
        }
      ],
      "name": "test",
      "outputs": [
        {
          "name": "",
          "type": "int256"
        }
      ],
      "payable": false,
      "stateMutability": "view",
      "type": "function"
    },
    {
      "constant": false,
      "inputs": [
        {
          "name": "newOwner",
          "type": "address"
        }
      ],
      "name": "transferOwnership",
      "outputs": [],
      "payable": false,
      "stateMutability": "nonpayable",
      "type": "function"
    },
    {
      "inputs": [],
      "payable": true,
      "stateMutability": "payable",
      "type": "constructor"
    },
    {
      "payable": true,
      "stateMutability": "payable",
      "type": "fallback"
    },
    {
      "anonymous": false,
      "inputs": [
        {
          "indexed": true,
          "name": "previousOwner",
          "type": "address"
        },
        {
          "indexed": true,
          "name": "newOwner",
          "type": "address"
        }
      ],
      "name": "OwnershipTransferred",
      "type": "event"
    }
  ],
  "bytecode": "0x6060604052336000806101000a81548173ffffffffffffffffffffffffffffffffffffffff021916908373ffffffffffffffffffffffffffffffffffffffff160217905550613fbf806100536000396000f300606060405260043610620000a3576000357c0100000000000000000000000000000000000000000000000000000000900463ffffffff1680630201590814620000a557806312065fe0146200027357806341c0e1b5146200029f5780634afe232414620002b7578063824063bd14620003ad5780638da5cb5b1462000435578063bca9a5c5146200048d578063eb8ac92114620004f3578063f2fde38b1462000536575b005b3415620000b157600080fd5b62000271600480803590602001908201803590602001908080601f0160208091040260200160405190810160405280939291908181526020018383808284378201915050505050509190803590602001908201803590602001908080601f0160208091040260200160405190810160405280939291908181526020018383808284378201915050505050509190803590602001908201803590602001908080601f0160208091040260200160405190810160405280939291908181526020018383808284378201915050505050509190803590602001909190803573ffffffffffffffffffffffffffffffffffffffff1690602001909190803590602001908201803590602001908080602002602001604051908101604052809392919081815260200183836020028082843782019150505050505091908035906020019082018035906020019080806020026020016040519081016040528093929190818152602001838360200280828437820191505050505050919080359060200190820180359060200190808060200260200160405190810160405280939291908181526020018383602002808284378201915050505050509190505062000572565b005b34156200027f57600080fd5b62000289620008d3565b6040518082815260200191505060405180910390f35b3415620002ab57600080fd5b620002b5620008f2565b005b3415620002c357600080fd5b620003ab6004808035906020019082018035906020019080806020026020016040519081016040528093929190818152602001838360200280828437820191505050505050919080359060200190820180359060200190808060200260200160405190810160405280939291908181526020018383602002808284378201915050505050509190803590602001909190803590602001909190803573ffffffffffffffffffffffffffffffffffffffff1690602001909190803573ffffffffffffffffffffffffffffffffffffffff169060200190919080359060200190919050506200092c565b005b3415620003b957600080fd5b62000433600480803590602001908201803590602001908080601f0160208091040260200160405190810160405280939291908181526020018383808284378201915050505050509190803590602001909190803573ffffffffffffffffffffffffffffffffffffffff1690602001909190505062000b35565b005b34156200044157600080fd5b6200044b62000cd0565b604051808273ffffffffffffffffffffffffffffffffffffffff1673ffffffffffffffffffffffffffffffffffffffff16815260200191505060405180910390f35b34156200049957600080fd5b620004b1600480803590602001909190505062000cf5565b604051808273ffffffffffffffffffffffffffffffffffffffff1673ffffffffffffffffffffffffffffffffffffffff16815260200191505060405180910390f35b3415620004ff57600080fd5b62000520600480803590602001909190803590602001909190505062000d3a565b6040518082815260200191505060405180910390f35b34156200054257600080fd5b62000570600480803573ffffffffffffffffffffffffffffffffffffffff1690602001909190505062000e1b565b005b60008060009054906101000a900473ffffffffffffffffffffffffffffffffffffffff1673ffffffffffffffffffffffffffffffffffffffff163373ffffffffffffffffffffffffffffffffffffffff16141515620005d057600080fd5b8888888888888888620005e262000f72565b808060200180602001806020018981526020018873ffffffffffffffffffffffffffffffffffffffff1673ffffffffffffffffffffffffffffffffffffffff16815260200180602001806020018060200187810387528f818151815260200191508051906020019080838360005b838110156200066d57808201518184015260208101905062000650565b50505050905090810190601f1680156200069b5780820380516001836020036101000a031916815260200191505b5087810386528e818151815260200191508051906020019080838360005b83811015620006d6578082015181840152602081019050620006b9565b50505050905090810190601f168015620007045780820380516001836020036101000a031916815260200191505b5087810385528d818151815260200191508051906020019080838360005b838110156200073f57808201518184015260208101905062000722565b50505050905090810190601f1680156200076d5780820380516001836020036101000a031916815260200191505b5087810384528a818151815260200191508051906020019060200280838360005b83811015620007ab5780820151818401526020810190506200078e565b50505050905001878103835289818151815260200191508051906020019060200280838360005b83811015620007ef578082015181840152602081019050620007d2565b50505050905001878103825288818151815260200191508051906020019060200280838360005b838110156200083357808201518184015260208101905062000816565b505050509050019e505050505050505050505050505050604051809103906000f08015156200086157600080fd5b90506001805480600101828162000879919062000f83565b9160005260206000209001600083909190916101000a81548173ffffffffffffffffffffffffffffffffffffffff021916908373ffffffffffffffffffffffffffffffffffffffff16021790555050505050505050505050565b60003073ffffffffffffffffffffffffffffffffffffffff1631905090565b6000809054906101000a900473ffffffffffffffffffffffffffffffffffffffff1673ffffffffffffffffffffffffffffffffffffffff16ff5b60008060009054906101000a900473ffffffffffffffffffffffffffffffffffffffff1673ffffffffffffffffffffffffffffffffffffffff163373ffffffffffffffffffffffffffffffffffffffff161415156200098a57600080fd5b878787878787876200099b62000fb2565b8080602001806020018881526020018781526020018673ffffffffffffffffffffffffffffffffffffffff1673ffffffffffffffffffffffffffffffffffffffff1681526020018573ffffffffffffffffffffffffffffffffffffffff1673ffffffffffffffffffffffffffffffffffffffff16815260200184815260200183810383528a818151815260200191508051906020019060200280838360005b8381101562000a5757808201518184015260208101905062000a3a565b50505050905001838103825289818151815260200191508051906020019060200280838360005b8381101562000a9b57808201518184015260208101905062000a7e565b505050509050019950505050505050505050604051809103906000f080151562000ac457600080fd5b90506003805480600101828162000adc919062000fc3565b9160005260206000209001600083909190916101000a81548173ffffffffffffffffffffffffffffffffffffffff021916908373ffffffffffffffffffffffffffffffffffffffff160217905550505050505050505050565b60008060009054906101000a900473ffffffffffffffffffffffffffffffffffffffff1673ffffffffffffffffffffffffffffffffffffffff163373ffffffffffffffffffffffffffffffffffffffff1614151562000b9357600080fd5b83838362000ba062000ff2565b80806020018481526020018373ffffffffffffffffffffffffffffffffffffffff1673ffffffffffffffffffffffffffffffffffffffff168152602001828103825285818151815260200191508051906020019080838360005b8381101562000c1757808201518184015260208101905062000bfa565b50505050905090810190601f16801562000c455780820380516001836020036101000a031916815260200191505b50945050505050604051809103906000f080151562000c6357600080fd5b90506002805480600101828162000c7b919062001003565b9160005260206000209001600083909190916101000a81548173ffffffffffffffffffffffffffffffffffffffff021916908373ffffffffffffffffffffffffffffffffffffffff1602179055505050505050565b6000809054906101000a900473ffffffffffffffffffffffffffffffffffffffff1681565b600060018281548110151562000d0757fe5b906000526020600020900160009054906101000a900473ffffffffffffffffffffffffffffffffffffffff169050919050565b600060018381548110151562000d4c57fe5b906000526020600020900160009054906101000a900473ffffffffffffffffffffffffffffffffffffffff1673ffffffffffffffffffffffffffffffffffffffff1663eb8ac92184846000604051602001526040518363ffffffff167c01000000000000000000000000000000000000000000000000000000000281526004018083815260200182815260200192505050602060405180830381600087803b151562000df757600080fd5b6102c65a03f1151562000e0957600080fd5b50505060405180519050905092915050565b6000809054906101000a900473ffffffffffffffffffffffffffffffffffffffff1673ffffffffffffffffffffffffffffffffffffffff163373ffffffffffffffffffffffffffffffffffffffff1614151562000e7757600080fd5b600073ffffffffffffffffffffffffffffffffffffffff168173ffffffffffffffffffffffffffffffffffffffff161415151562000eb457600080fd5b8073ffffffffffffffffffffffffffffffffffffffff166000809054906101000a900473ffffffffffffffffffffffffffffffffffffffff1673ffffffffffffffffffffffffffffffffffffffff167f8be0079c531659141344cd1fd0a4f28419497f9722a3daafe3b4186f6b6457e060405160405180910390a3806000806101000a81548173ffffffffffffffffffffffffffffffffffffffff021916908373ffffffffffffffffffffffffffffffffffffffff16021790555050565b604051611120806200105b83390190565b81548183558181151162000fad5781836000526020600020918201910162000fac919062001032565b5b505050565b604051610f90806200217b83390190565b81548183558181151162000fed5781836000526020600020918201910162000fec919062001032565b5b505050565b604051610e89806200310b83390190565b8154818355818115116200102d578183600052602060002091820191016200102c919062001032565b5b505050565b6200105791905b808211156200105357600081600090555060010162001039565b5090565b905600606060405234156200001057600080fd5b6040516200112038038062001120833981016040528080518201919060200180518201919060200180518201919060200180519060200190919080519060200190919080518201919060200180518201919060200180518201919050506000336000806101000a81548173ffffffffffffffffffffffffffffffffffffffff021916908373ffffffffffffffffffffffffffffffffffffffff1602179055508860079080519060200190620000c7929190620001eb565b508760089080519060200190620000e0929190620001eb565b508660099080519060200190620000f9929190620001eb565b508560038190555084600a60006101000a81548173ffffffffffffffffffffffffffffffffffffffff021916908373ffffffffffffffffffffffffffffffffffffffff16021790555083600490805190602001906200015a92919062000272565b5082600590805190602001906200017392919062000272565b50600090505b8151811015620001dc5781818151811015156200019257fe5b9060200190602002015160066000600584815481101515620001b057fe5b906000526020600020900154815260200190815260200160002081905550808060010191505062000179565b505050505050505050620002ec565b828054600181600116156101000203166002900490600052602060002090601f016020900481019282601f106200022e57805160ff19168380011785556200025f565b828001600101855582156200025f579182015b828111156200025e57825182559160200191906001019062000241565b5b5090506200026e9190620002c4565b5090565b828054828255906000526020600020908101928215620002b1579160200282015b82811115620002b057825182559160200191906001019062000293565b5b509050620002c09190620002c4565b5090565b620002e991905b80821115620002e5576000816000905550600101620002cb565b5090565b90565b610e2480620002fc6000396000f3006060604052600436106100ba576000357c0100000000000000000000000000000000000000000000000000000000900463ffffffff1680630ff782961461011d5780632f59058b14610154578063637b825c146101a957806371205c6d146101cc578063893e57aa1461022f5780638da5cb5b1461025857806397f75df8146102ad578063abb996ca14610305578063d9c7bd7a1461039b578063eb8ac921146103d2578063f2fde38b14610412578063f75f9f7b1461044b575b6000809054906101000a900473ffffffffffffffffffffffffffffffffffffffff1673ffffffffffffffffffffffffffffffffffffffff166108fc349081150290604051600060405180830381858888f19350505050151561011b57600080fd5b005b341561012857600080fd5b61013e6004808035906020019091905050610484565b6040518082815260200191505060405180910390f35b341561015f57600080fd5b6101676104a8565b604051808273ffffffffffffffffffffffffffffffffffffffff1673ffffffffffffffffffffffffffffffffffffffff16815260200191505060405180910390f35b34156101b457600080fd5b6101ca600480803590602001909190505061058f565b005b34156101d757600080fd5b6101ed60048080359060200190919050506105f4565b604051808273ffffffffffffffffffffffffffffffffffffffff1673ffffffffffffffffffffffffffffffffffffffff16815260200191505060405180910390f35b341561023a57600080fd5b610242610633565b6040518082815260200191505060405180910390f35b341561026357600080fd5b61026b610639565b604051808273ffffffffffffffffffffffffffffffffffffffff1673ffffffffffffffffffffffffffffffffffffffff16815260200191505060405180910390f35b34156102b857600080fd5b610303600480803573ffffffffffffffffffffffffffffffffffffffff1690602001909190803573ffffffffffffffffffffffffffffffffffffffff1690602001909190505061065e565b005b341561031057600080fd5b610326600480803590602001909190505061081b565b604051808373ffffffffffffffffffffffffffffffffffffffff1673ffffffffffffffffffffffffffffffffffffffff1681526020018273ffffffffffffffffffffffffffffffffffffffff1673ffffffffffffffffffffffffffffffffffffffff1681526020019250505060405180910390f35b34156103a657600080fd5b6103bc600480803590602001909190505061088e565b6040518082815260200191505060405180910390f35b34156103dd57600080fd5b6103fc60048080359060200190919080359060200190919050506108b2565b6040518082815260200191505060405180910390f35b341561041d57600080fd5b610449600480803573ffffffffffffffffffffffffffffffffffffffff169060200190919050506109aa565b005b341561045657600080fd5b610482600480803573ffffffffffffffffffffffffffffffffffffffff16906020019091905050610aff565b005b60058181548110151561049357fe5b90600052602060002090016000915090505481565b600080600090505b600280549050811015610586576002818154811015156104cc57fe5b906000526020600020906002020160010160009054906101000a900473ffffffffffffffffffffffffffffffffffffffff1673ffffffffffffffffffffffffffffffffffffffff163373ffffffffffffffffffffffffffffffffffffffff1614156105795760028181548110151561054057fe5b906000526020600020906002020160000160009054906101000a900473ffffffffffffffffffffffffffffffffffffffff16915061058b565b80806001019150506104b0565b600091505b5090565b6000809054906101000a900473ffffffffffffffffffffffffffffffffffffffff1673ffffffffffffffffffffffffffffffffffffffff163373ffffffffffffffffffffffffffffffffffffffff161415156105ea57600080fd5b8060038190555050565b60018181548110151561060357fe5b90600052602060002090016000915054906101000a900473ffffffffffffffffffffffffffffffffffffffff1681565b60035481565b6000809054906101000a900473ffffffffffffffffffffffffffffffffffffffff1681565b6000809054906101000a900473ffffffffffffffffffffffffffffffffffffffff1673ffffffffffffffffffffffffffffffffffffffff163373ffffffffffffffffffffffffffffffffffffffff161415156106b957600080fd5b600180548060010182816106cd9190610d08565b9160005260206000209001600084909190916101000a81548173ffffffffffffffffffffffffffffffffffffffff021916908373ffffffffffffffffffffffffffffffffffffffff16021790555050600280548060010182816107309190610d34565b9160005260206000209060020201600060408051908101604052808673ffffffffffffffffffffffffffffffffffffffff1681526020018573ffffffffffffffffffffffffffffffffffffffff16815250909190915060008201518160000160006101000a81548173ffffffffffffffffffffffffffffffffffffffff021916908373ffffffffffffffffffffffffffffffffffffffff16021790555060208201518160010160006101000a81548173ffffffffffffffffffffffffffffffffffffffff021916908373ffffffffffffffffffffffffffffffffffffffff1602179055505050505050565b60028181548110151561082a57fe5b90600052602060002090600202016000915090508060000160009054906101000a900473ffffffffffffffffffffffffffffffffffffffff16908060010160009054906101000a900473ffffffffffffffffffffffffffffffffffffffff16905082565b60048181548110151561089d57fe5b90600052602060002090016000915090505481565b60008060008060009250600091505b8482101561099e576001868154811015156108d857fe5b906000526020600020900160009054906101000a900473ffffffffffffffffffffffffffffffffffffffff1690508073ffffffffffffffffffffffffffffffffffffffff1663c6ee20d26000604051602001526040518163ffffffff167c0100000000000000000000000000000000000000000000000000000000028152600401602060405180830381600087803b151561097257600080fd5b6102c65a03f1151561098357600080fd5b505050604051805190508301925081806001019250506108c1565b82935050505092915050565b6000809054906101000a900473ffffffffffffffffffffffffffffffffffffffff1673ffffffffffffffffffffffffffffffffffffffff163373ffffffffffffffffffffffffffffffffffffffff16141515610a0557600080fd5b600073ffffffffffffffffffffffffffffffffffffffff168173ffffffffffffffffffffffffffffffffffffffff1614151515610a4157600080fd5b8073ffffffffffffffffffffffffffffffffffffffff166000809054906101000a900473ffffffffffffffffffffffffffffffffffffffff1673ffffffffffffffffffffffffffffffffffffffff167f8be0079c531659141344cd1fd0a4f28419497f9722a3daafe3b4186f6b6457e060405160405180910390a3806000806101000a81548173ffffffffffffffffffffffffffffffffffffffff021916908373ffffffffffffffffffffffffffffffffffffffff16021790555050565b60008060009054906101000a900473ffffffffffffffffffffffffffffffffffffffff1673ffffffffffffffffffffffffffffffffffffffff163373ffffffffffffffffffffffffffffffffffffffff161480610ba95750600a60009054906101000a900473ffffffffffffffffffffffffffffffffffffffff1673ffffffffffffffffffffffffffffffffffffffff163373ffffffffffffffffffffffffffffffffffffffff16145b1515610bb457600080fd5b600090505b600280549050811015610d0357600281815481101515610bd557fe5b906000526020600020906002020160000160009054906101000a900473ffffffffffffffffffffffffffffffffffffffff1673ffffffffffffffffffffffffffffffffffffffff168273ffffffffffffffffffffffffffffffffffffffff161415610cf657600281815481101515610c4957fe5b906000526020600020906002020160000160009054906101000a900473ffffffffffffffffffffffffffffffffffffffff1673ffffffffffffffffffffffffffffffffffffffff166386da88656040518163ffffffff167c0100000000000000000000000000000000000000000000000000000000028152600401600060405180830381600087803b1515610cdd57600080fd5b6102c65a03f11515610cee57600080fd5b505050610d04565b8080600101915050610bb9565b5b5050565b815481835581811511610d2f57818360005260206000209182019101610d2e9190610d66565b5b505050565b815481835581811511610d6157600202816002028360005260206000209182019101610d609190610d8b565b5b505050565b610d8891905b80821115610d84576000816000905550600101610d6c565b5090565b90565b610df591905b80821115610df157600080820160006101000a81549073ffffffffffffffffffffffffffffffffffffffff02191690556001820160006101000a81549073ffffffffffffffffffffffffffffffffffffffff021916905550600201610d91565b5090565b905600a165627a7a7230582077de68e0048faba4e9e98eeb293acf8e3e736409d600511e5b3123262318e7e700296060604052604051610f90380380610f9083398101604052808051820191906020018051820191906020018051906020019091908051906020019091908051906020019091908051906020019091908051906020019091905050336000806101000a81548173ffffffffffffffffffffffffffffffffffffffff021916908373ffffffffffffffffffffffffffffffffffffffff1602179055508034101515156100a857600080fd5b4285101515156100b757600080fd5b84841115156100c557600080fd5b6000600860146101000a81548160ff02191690831515021790555033600860006101000a81548173ffffffffffffffffffffffffffffffffffffffff021916908373ffffffffffffffffffffffffffffffffffffffff16021790555080600781905550866001908051906020019061013e9291906101f2565b5085600290805190602001906101559291906101f2565b50846003819055508360048190555082600560006101000a81548173ffffffffffffffffffffffffffffffffffffffff021916908373ffffffffffffffffffffffffffffffffffffffff16021790555081600660006101000a81548173ffffffffffffffffffffffffffffffffffffffff021916908373ffffffffffffffffffffffffffffffffffffffff16021790555050505050505050610264565b82805482825590600052602060002090810192821561022e579160200282015b8281111561022d578251825591602001919060010190610212565b5b50905061023b919061023f565b5090565b61026191905b8082111561025d576000816000905550600101610245565b5090565b90565b610d1d806102736000396000f3006060604052600436106100a4576000357c0100000000000000000000000000000000000000000000000000000000900463ffffffff16806355593dc514610108578063609bb7941461011257806386da88651461011c57806387f7f37f146101315780638da5cb5b146102a3578063a50ec326146102f8578063c6a40af414610302578063c6ee20d21461033b578063d56b288914610364578063f2fde38b14610379575b600860009054906101000a900473ffffffffffffffffffffffffffffffffffffffff1673ffffffffffffffffffffffffffffffffffffffff166108fc349081150290604051600060405180830381858888f19350505050151561010657600080fd5b005b6101106103b2565b005b61011a61041b565b005b341561012757600080fd5b61012f610659565b005b341561013c57600080fd5b61014461072a565b6040518080602001806020018b81526020018a81526020018973ffffffffffffffffffffffffffffffffffffffff1673ffffffffffffffffffffffffffffffffffffffff1681526020018873ffffffffffffffffffffffffffffffffffffffff1673ffffffffffffffffffffffffffffffffffffffff1681526020018781526020018673ffffffffffffffffffffffffffffffffffffffff1673ffffffffffffffffffffffffffffffffffffffff1681526020018515151515815260200184815260200183810383528d818151815260200191508051906020019060200280838360005b83811015610243578082015181840152602081019050610228565b5050505090500183810382528c818151815260200191508051906020019060200280838360005b8381101561028557808201518184015260208101905061026a565b505050509050019c5050505050505050505050505060405180910390f35b34156102ae57600080fd5b6102b6610893565b604051808273ffffffffffffffffffffffffffffffffffffffff1673ffffffffffffffffffffffffffffffffffffffff16815260200191505060405180910390f35b6103006108b8565b005b341561030d57600080fd5b610339600480803573ffffffffffffffffffffffffffffffffffffffff169060200190919050506108eb565b005b341561034657600080fd5b61034e610afa565b6040518082815260200191505060405180910390f35b341561036f57600080fd5b610377610b04565b005b341561038457600080fd5b6103b0600480803573ffffffffffffffffffffffffffffffffffffffff16906020019091905050610b88565b005b600754341115156103c257600080fd5b7fffffffffffffffffffffffffffffffffffffffffffffffffffffffffffffffff6009541415156103f257600080fd5b60076201518080600354420381151561040757fe5b040181151561041257fe5b06600981905550565b6000600860009054906101000a900473ffffffffffffffffffffffffffffffffffffffff1673ffffffffffffffffffffffffffffffffffffffff163373ffffffffffffffffffffffffffffffffffffffff1614806104c65750600660009054906101000a900473ffffffffffffffffffffffffffffffffffffffff1673ffffffffffffffffffffffffffffffffffffffff163373ffffffffffffffffffffffffffffffffffffffff16145b15156104d157600080fd5b6000600954121515156104e357600080fd5b6201518060076009546003544203018115156104fb57fe5b0610151561050857600080fd5b600860149054906101000a900460ff1615151561052457600080fd5b6007543073ffffffffffffffffffffffffffffffffffffffff16311015610594577fffffffffffffffffffffffffffffffffffffffffffffffffffffffffffffffff6009819055507fffffffffffffffffffffffffffffffffffffffffffffffffffffffffffffffff905061061f565b600560009054906101000a900473ffffffffffffffffffffffffffffffffffffffff1673ffffffffffffffffffffffffffffffffffffffff166108fc6007549081150290604051600060405180830381858888f1935050505015156105f857600080fd5b6007543073ffffffffffffffffffffffffffffffffffffffff1631101561061e57600190505b5b7f7c7c3b4bb364dd81f16a3ca5653cb81414bcc0966ccd8b47ab6658e2eab9c33d816040518082815260200191505060405180910390a150565b600860009054906101000a900473ffffffffffffffffffffffffffffffffffffffff1673ffffffffffffffffffffffffffffffffffffffff163373ffffffffffffffffffffffffffffffffffffffff1614806107025750600560009054906101000a900473ffffffffffffffffffffffffffffffffffffffff1673ffffffffffffffffffffffffffffffffffffffff163373ffffffffffffffffffffffffffffffffffffffff16145b151561070d57600080fd5b6001600860146101000a81548160ff021916908315150217905550565b610732610cdd565b61073a610cdd565b60008060008060008060008060016002600354600454600560009054906101000a900473ffffffffffffffffffffffffffffffffffffffff16600660009054906101000a900473ffffffffffffffffffffffffffffffffffffffff16600754600860009054906101000a900473ffffffffffffffffffffffffffffffffffffffff16600860149054906101000a900460ff166009548980548060200260200160405190810160405280929190818152602001828054801561081a57602002820191906000526020600020905b815481526020019060010190808311610806575b505050505099508880548060200260200160405190810160405280929190818152602001828054801561086c57602002820191906000526020600020905b815481526020019060010190808311610858575b50505050509850995099509950995099509950995099509950995090919293949596979899565b6000809054906101000a900473ffffffffffffffffffffffffffffffffffffffff1681565b7fffffffffffffffffffffffffffffffffffffffffffffffffffffffffffffffff600954121515156108e957600080fd5b565b6000809054906101000a900473ffffffffffffffffffffffffffffffffffffffff1673ffffffffffffffffffffffffffffffffffffffff163373ffffffffffffffffffffffffffffffffffffffff1614151561094657600080fd5b600560009054906101000a900473ffffffffffffffffffffffffffffffffffffffff1673ffffffffffffffffffffffffffffffffffffffff168173ffffffffffffffffffffffffffffffffffffffff1614806109ef5750600660009054906101000a900473ffffffffffffffffffffffffffffffffffffffff1673ffffffffffffffffffffffffffffffffffffffff168173ffffffffffffffffffffffffffffffffffffffff16145b15156109fa57600080fd5b600860149054906101000a900460ff161515610a1557600080fd5b7ffffffffffffffffffffffffffffffffffffffffffffffffffffffffffffffe0c600981905550600560009054906101000a900473ffffffffffffffffffffffffffffffffffffffff1673ffffffffffffffffffffffffffffffffffffffff168173ffffffffffffffffffffffffffffffffffffffff161415610af757600560009054906101000a900473ffffffffffffffffffffffffffffffffffffffff1673ffffffffffffffffffffffffffffffffffffffff166108fc6007549081150290604051600060405180830381858888f193505050501515610af657600080fd5b5b50565b6000600954905090565b6000809054906101000a900473ffffffffffffffffffffffffffffffffffffffff1673ffffffffffffffffffffffffffffffffffffffff163373ffffffffffffffffffffffffffffffffffffffff16141515610b5f57600080fd5b7fffffffffffffffffffffffffffffffffffffffffffffffffffffffffffffff38600981905550565b6000809054906101000a900473ffffffffffffffffffffffffffffffffffffffff1673ffffffffffffffffffffffffffffffffffffffff163373ffffffffffffffffffffffffffffffffffffffff16141515610be357600080fd5b600073ffffffffffffffffffffffffffffffffffffffff168173ffffffffffffffffffffffffffffffffffffffff1614151515610c1f57600080fd5b8073ffffffffffffffffffffffffffffffffffffffff166000809054906101000a900473ffffffffffffffffffffffffffffffffffffffff1673ffffffffffffffffffffffffffffffffffffffff167f8be0079c531659141344cd1fd0a4f28419497f9722a3daafe3b4186f6b6457e060405160405180910390a3806000806101000a81548173ffffffffffffffffffffffffffffffffffffffff021916908373ffffffffffffffffffffffffffffffffffffffff16021790555050565b6020604051908101604052806000815250905600a165627a7a723058204a28e420d3c643ce7b7b84c6cf328876c579ec322078b7b3f5eec98a2dfa9fe500296060604052341561000f57600080fd5b604051610e89380380610e8983398101604052808051820191906020018051906020019091908051906020019091905050336000806101000a81548173ffffffffffffffffffffffffffffffffffffffff021916908373ffffffffffffffffffffffffffffffffffffffff16021790555082600290805190602001906100969291906100e7565b508160038190555080600460006101000a81548173ffffffffffffffffffffffffffffffffffffffff021916908373ffffffffffffffffffffffffffffffffffffffff16021790555050505061018c565b828054600181600116156101000203166002900490600052602060002090601f016020900481019282601f1061012857805160ff1916838001178555610156565b82800160010185558215610156579182015b8281111561015557825182559160200191906001019061013a565b5b5090506101639190610167565b5090565b61018991905b8082111561018557600081600090555060010161016d565b5090565b90565b610cee8061019b6000396000f300606060405260043610610099576000357c0100000000000000000000000000000000000000000000000000000000900463ffffffff16806306fdde03146100fc578063637b825c1461018a578063660512bc146101ad578063893e57aa146101db5780638da5cb5b14610204578063d108177a14610259578063f2fde38b14610292578063f3cb8c31146102cb578063f75f9f7b14610304575b6000809054906101000a900473ffffffffffffffffffffffffffffffffffffffff1673ffffffffffffffffffffffffffffffffffffffff166108fc349081150290604051600060405180830381858888f1935050505015156100fa57600080fd5b005b341561010757600080fd5b61010f61033d565b6040518080602001828103825283818151815260200191508051906020019080838360005b8381101561014f578082015181840152602081019050610134565b50505050905090810190601f16801561017c5780820380516001836020036101000a031916815260200191505b509250505060405180910390f35b341561019557600080fd5b6101ab60048080359060200190919050506103db565b005b6101d9600480803573ffffffffffffffffffffffffffffffffffffffff16906020019091905050610440565b005b34156101e657600080fd5b6101ee6104bb565b6040518082815260200191505060405180910390f35b341561020f57600080fd5b6102176104c1565b604051808273ffffffffffffffffffffffffffffffffffffffff1673ffffffffffffffffffffffffffffffffffffffff16815260200191505060405180910390f35b341561026457600080fd5b610290600480803573ffffffffffffffffffffffffffffffffffffffff169060200190919050506104e6565b005b341561029d57600080fd5b6102c9600480803573ffffffffffffffffffffffffffffffffffffffff16906020019091905050610606565b005b34156102d657600080fd5b610302600480803573ffffffffffffffffffffffffffffffffffffffff1690602001909190505061075b565b005b341561030f57600080fd5b61033b600480803573ffffffffffffffffffffffffffffffffffffffff16906020019091905050610942565b005b60028054600181600116156101000203166002900480601f0160208091040260200160405190810160405280929190818152602001828054600181600116156101000203166002900480156103d35780601f106103a8576101008083540402835291602001916103d3565b820191906000526020600020905b8154815290600101906020018083116103b657829003601f168201915b505050505081565b6000809054906101000a900473ffffffffffffffffffffffffffffffffffffffff1673ffffffffffffffffffffffffffffffffffffffff163373ffffffffffffffffffffffffffffffffffffffff1614151561043657600080fd5b8060038190555050565b8073ffffffffffffffffffffffffffffffffffffffff1663609bb794346040518263ffffffff167c01000000000000000000000000000000000000000000000000000000000281526004016000604051808303818588803b15156104a357600080fd5b6125ee5a03f115156104b457600080fd5b5050505050565b60035481565b6000809054906101000a900473ffffffffffffffffffffffffffffffffffffffff1681565b60008060009054906101000a900473ffffffffffffffffffffffffffffffffffffffff1673ffffffffffffffffffffffffffffffffffffffff163373ffffffffffffffffffffffffffffffffffffffff1614806105905750600460009054906101000a900473ffffffffffffffffffffffffffffffffffffffff1673ffffffffffffffffffffffffffffffffffffffff163373ffffffffffffffffffffffffffffffffffffffff16145b151561059b57600080fd5b6105a482610b00565b9050600081101515156105b657600080fd5b60006001828154811015156105c757fe5b906000526020600020900160000160146101000a81548160ff02191690831515021790555060018054809190600190036106019190610bde565b505050565b6000809054906101000a900473ffffffffffffffffffffffffffffffffffffffff1673ffffffffffffffffffffffffffffffffffffffff163373ffffffffffffffffffffffffffffffffffffffff1614151561066157600080fd5b600073ffffffffffffffffffffffffffffffffffffffff168173ffffffffffffffffffffffffffffffffffffffff161415151561069d57600080fd5b8073ffffffffffffffffffffffffffffffffffffffff166000809054906101000a900473ffffffffffffffffffffffffffffffffffffffff1673ffffffffffffffffffffffffffffffffffffffff167f8be0079c531659141344cd1fd0a4f28419497f9722a3daafe3b4186f6b6457e060405160405180910390a3806000806101000a81548173ffffffffffffffffffffffffffffffffffffffff021916908373ffffffffffffffffffffffffffffffffffffffff16021790555050565b6000610765610c0a565b6000809054906101000a900473ffffffffffffffffffffffffffffffffffffffff1673ffffffffffffffffffffffffffffffffffffffff163373ffffffffffffffffffffffffffffffffffffffff16148061080d5750600460009054906101000a900473ffffffffffffffffffffffffffffffffffffffff1673ffffffffffffffffffffffffffffffffffffffff163373ffffffffffffffffffffffffffffffffffffffff16145b151561081857600080fd5b61082183610b00565b915060008210156108f25760408051908101604052808473ffffffffffffffffffffffffffffffffffffffff168152602001600115158152509050600180548060010182816108709190610c3c565b9160005260206000209001600083909190915060008201518160000160006101000a81548173ffffffffffffffffffffffffffffffffffffffff021916908373ffffffffffffffffffffffffffffffffffffffff16021790555060208201518160000160146101000a81548160ff02191690831515021790555050505061093d565b6001808381548110151561090257fe5b906000526020600020900160000160146101000a81548160ff0219169083151502179055506001805480919060010161093b9190610bde565b505b505050565b6000806000809054906101000a900473ffffffffffffffffffffffffffffffffffffffff1673ffffffffffffffffffffffffffffffffffffffff163373ffffffffffffffffffffffffffffffffffffffff1614806109ed5750600460009054906101000a900473ffffffffffffffffffffffffffffffffffffffff1673ffffffffffffffffffffffffffffffffffffffff163373ffffffffffffffffffffffffffffffffffffffff16145b15156109f857600080fd5b8291508173ffffffffffffffffffffffffffffffffffffffff16632f59058b6000604051602001526040518163ffffffff167c0100000000000000000000000000000000000000000000000000000000028152600401602060405180830381600087803b1515610a6757600080fd5b6102c65a03f11515610a7857600080fd5b5050506040518051905090508073ffffffffffffffffffffffffffffffffffffffff166386da88656040518163ffffffff167c0100000000000000000000000000000000000000000000000000000000028152600401600060405180830381600087803b1515610ae757600080fd5b6102c65a03f11515610af857600080fd5b505050505050565b600080600090505b600180549050811015610bd4578273ffffffffffffffffffffffffffffffffffffffff16600183815481101515610b3b57fe5b906000526020600020900160000160009054906101000a900473ffffffffffffffffffffffffffffffffffffffff1673ffffffffffffffffffffffffffffffffffffffff161415610b8e57819150610bd8565b600182815481101515610b9d57fe5b906000526020600020900160000160149054906101000a900460ff1615610bc75780806001019150505b8180600101925050610b08565b8191505b50919050565b815481835581811511610c0557818360005260206000209182019101610c049190610c68565b5b505050565b6040805190810160405280600073ffffffffffffffffffffffffffffffffffffffff1681526020016000151581525090565b815481835581811511610c6357818360005260206000209182019101610c629190610c68565b5b505050565b610cbf91905b80821115610cbb57600080820160006101000a81549073ffffffffffffffffffffffffffffffffffffffff02191690556000820160146101000a81549060ff021916905550600101610c6e565b5090565b905600a165627a7a72305820cce10605b0af88395f165b7b6b3fb4985eeea44dc8dff4081add8c57b9b38a090029a165627a7a723058207b13178e9efad93590b63eb22bdb6da90c8cf9d8b59612dc6881a7ee641889360029",
  "source": "pragma solidity ^0.4.11;\r\nimport \"zeppelin-solidity/contracts/ownership/Ownable.sol\";\r\nimport \"./Employee.sol\";\r\nimport \"./Company.sol\";\r\nimport \"./Contract.sol\";\r\n\r\n\r\ncontract Main is Ownable {\r\n\r\n    Employee[] private employees;\r\n    Company[] private companies;\r\n    Contract[] private contracts;\r\n\r\n    function () public payable {\r\n\r\n    }\r\n\r\n    function Main() public payable {}\r\n\r\n    function newEmployee(string _firstName, string _lastName, string _email,\r\n                            uint _raiting, address _address, uint[] _positionCodes,\r\n                            uint[] _skillCodes, uint[] _skillToPosition) public onlyOwner {\r\n\r\n        Employee employee = new Employee(_firstName, _lastName, _email, _raiting,\r\n                                            _address, _positionCodes, _skillCodes, _skillToPosition);\r\n        employees.push(employee);\r\n\r\n    }\r\n\r\n    function newCompany(string _name, uint _raiting, address _address) public onlyOwner {\r\n        Company company = new Company(_name, _raiting, _address);\r\n        companies.push(company);\r\n    }\r\n\r\n    function newContract(uint[] _skillCodes, uint[] _skillToPosition,\r\n                            uint _startDate, uint _endDate, Employee _empoloyee,\r\n                            Company _company, uint _weekPayment) public onlyOwner {\r\n\r\n        Contract _contract = new Contract(_skillCodes, _skillToPosition,\r\n                                            _startDate, _endDate, _empoloyee, _company, _weekPayment);\r\n        contracts.push(_contract);\r\n    }\r\n\r\n    function getBalance() public view returns (uint) {\r\n        return this.balance;\r\n    }\r\n\r\n    function getEmployee(uint index) public view returns (Employee) {\r\n        return employees[index];\r\n    }\r\n\r\n    function kill() public {\r\n        selfdestruct(owner);\r\n    }\r\n\r\n    function test(uint index, uint count) public view returns (int) {\r\n        return employees[index].test(index, count);\r\n    }\r\n\r\n}\r\n",
  "sourcePath": "E:\\ilgiz\\nodeProjects\\emploreum_smart_contracts\\contracts\\Main.sol",
  "compiler": {
    "name": "solc",
    "version": "0.4.18+commit.9cf6e910.Emscripten.clang"
  },
  "schemaVersion": "1.0.1",
  "updatedAt": "2018-02-10T11:54:21.199Z"
}